{
  "_format": "hh-sol-artifact-1",
  "contractName": "WETH9",
  "sourceName": "contracts/WETH9.sol",
  "abi": [
    {
      "anonymous": false,
      "inputs": [
        {
          "indexed": true,
          "internalType": "address",
          "name": "src",
          "type": "address"
        },
        {
          "indexed": true,
          "internalType": "address",
          "name": "guy",
          "type": "address"
        },
        {
          "indexed": false,
          "internalType": "uint256",
          "name": "wad",
          "type": "uint256"
        }
      ],
      "name": "Approval",
      "type": "event"
    },
    {
      "anonymous": false,
      "inputs": [
        {
          "indexed": true,
          "internalType": "address",
          "name": "dst",
          "type": "address"
        },
        {
          "indexed": false,
          "internalType": "uint256",
          "name": "wad",
          "type": "uint256"
        }
      ],
      "name": "Deposit",
      "type": "event"
    },
    {
      "anonymous": false,
      "inputs": [
        {
          "indexed": true,
          "internalType": "address",
          "name": "src",
          "type": "address"
        },
        {
          "indexed": true,
          "internalType": "address",
          "name": "dst",
          "type": "address"
        },
        {
          "indexed": false,
          "internalType": "uint256",
          "name": "wad",
          "type": "uint256"
        }
      ],
      "name": "Transfer",
      "type": "event"
    },
    {
      "anonymous": false,
      "inputs": [
        {
          "indexed": true,
          "internalType": "address",
          "name": "src",
          "type": "address"
        },
        {
          "indexed": false,
          "internalType": "uint256",
          "name": "wad",
          "type": "uint256"
        }
      ],
      "name": "Withdrawal",
      "type": "event"
    },
    {
      "inputs": [
        {
          "internalType": "address",
          "name": "",
          "type": "address"
        },
        {
          "internalType": "address",
          "name": "",
          "type": "address"
        }
      ],
      "name": "allowance",
      "outputs": [
        {
          "internalType": "uint256",
          "name": "",
          "type": "uint256"
        }
      ],
      "stateMutability": "view",
      "type": "function"
    },
    {
      "inputs": [
        {
          "internalType": "address",
          "name": "guy",
          "type": "address"
        },
        {
          "internalType": "uint256",
          "name": "wad",
          "type": "uint256"
        }
      ],
      "name": "approve",
      "outputs": [
        {
          "internalType": "bool",
          "name": "",
          "type": "bool"
        }
      ],
      "stateMutability": "nonpayable",
      "type": "function"
    },
    {
      "inputs": [
        {
          "internalType": "address",
          "name": "",
          "type": "address"
        }
      ],
      "name": "balanceOf",
      "outputs": [
        {
          "internalType": "uint256",
          "name": "",
          "type": "uint256"
        }
      ],
      "stateMutability": "view",
      "type": "function"
    },
    {
      "inputs": [],
      "name": "decimals",
      "outputs": [
        {
          "internalType": "uint8",
          "name": "",
          "type": "uint8"
        }
      ],
      "stateMutability": "view",
      "type": "function"
    },
    {
      "inputs": [],
      "name": "deposit",
      "outputs": [],
      "stateMutability": "payable",
      "type": "function"
    },
    {
      "inputs": [],
      "name": "name",
      "outputs": [
        {
          "internalType": "string",
          "name": "",
          "type": "string"
        }
      ],
      "stateMutability": "view",
      "type": "function"
    },
    {
      "inputs": [],
      "name": "symbol",
      "outputs": [
        {
          "internalType": "string",
          "name": "",
          "type": "string"
        }
      ],
      "stateMutability": "view",
      "type": "function"
    },
    {
      "inputs": [],
      "name": "totalSupply",
      "outputs": [
        {
          "internalType": "uint256",
          "name": "",
          "type": "uint256"
        }
      ],
      "stateMutability": "view",
      "type": "function"
    },
    {
      "inputs": [
        {
          "internalType": "uint256",
          "name": "wad",
          "type": "uint256"
        }
      ],
      "name": "withdraw",
      "outputs": [],
      "stateMutability": "nonpayable",
      "type": "function"
    },
    {
      "stateMutability": "payable",
      "type": "receive"
    }
  ],
  "bytecode": "0x60806040526040518060400160405280600d81526020017f57726170706564204574686572000000000000000000000000000000000000008152506000908051906020019061004f9291906100ca565b506040518060400160405280600481526020017f57455448000000000000000000000000000000000000000000000000000000008152506001908051906020019061009b9291906100ca565b506012600260006101000a81548160ff021916908360ff1602179055503480156100c457600080fd5b506101ce565b8280546100d69061019c565b90600052602060002090601f0160209004810192826100f8576000855561013f565b82601f1061011157805160ff191683800117855561013f565b8280016001018555821561013f579182015b8281111561013e578251825591602001919060010190610123565b5b50905061014c9190610150565b5090565b5b80821115610169576000816000905550600101610151565b5090565b7f4e487b7100000000000000000000000000000000000000000000000000000000600052602260045260246000fd5b600060028204905060018216806101b457607f821691505b602082108114156101c8576101c761016d565b5b50919050565b610a8f80620001de6000396000f3fe60806040526004361061008a5760003560e01c8063313ce56711610059578063313ce5671461015a57806370a082311461018557806395d89b41146101c2578063d0e30db0146101ed578063dd62ed3e146101f757610099565b806306fdde031461009e578063095ea7b3146100c957806318160ddd146101065780632e1a7d4d1461013157610099565b3661009957610097610234565b005b600080fd5b3480156100aa57600080fd5b506100b36102da565b6040516100c09190610713565b60405180910390f35b3480156100d557600080fd5b506100f060048036038101906100eb91906107ce565b610368565b6040516100fd9190610829565b60405180910390f35b34801561011257600080fd5b5061011b61045a565b6040516101289190610853565b60405180910390f35b34801561013d57600080fd5b506101586004803603810190610153919061086e565b610462565b005b34801561016657600080fd5b5061016f61059c565b60405161017c91906108b7565b60405180910390f35b34801561019157600080fd5b506101ac60048036038101906101a791906108d2565b6105af565b6040516101b99190610853565b60405180910390f35b3480156101ce57600080fd5b506101d76105c7565b6040516101e49190610713565b60405180910390f35b6101f5610234565b005b34801561020357600080fd5b5061021e600480360381019061021991906108ff565b610655565b60405161022b9190610853565b60405180910390f35b34600360003373ffffffffffffffffffffffffffffffffffffffff1673ffffffffffffffffffffffffffffffffffffffff1681526020019081526020016000206000828254610283919061096e565b925050819055503373ffffffffffffffffffffffffffffffffffffffff167fe1fffcc4923d04b559f4d29a8bfc6cda04eb5b0d3c460751c2402c5c5cc9109c346040516102d09190610853565b60405180910390a2565b600080546102e7906109f3565b80601f0160208091040260200160405190810160405280929190818152602001828054610313906109f3565b80156103605780601f1061033557610100808354040283529160200191610360565b820191906000526020600020905b81548152906001019060200180831161034357829003601f168201915b505050505081565b600081600460003373ffffffffffffffffffffffffffffffffffffffff1673ffffffffffffffffffffffffffffffffffffffff16815260200190815260200160002060008573ffffffffffffffffffffffffffffffffffffffff1673ffffffffffffffffffffffffffffffffffffffff168152602001908152602001600020819055508273ffffffffffffffffffffffffffffffffffffffff163373ffffffffffffffffffffffffffffffffffffffff167f8c5be1e5ebec7d5bd14f71427d1e84f3dd0314c0f7b2291e5b200ac8c7c3b925846040516104489190610853565b60405180910390a36001905092915050565b600047905090565b80600360003373ffffffffffffffffffffffffffffffffffffffff1673ffffffffffffffffffffffffffffffffffffffff1681526020019081526020016000205410156104ae57600080fd5b80600360003373ffffffffffffffffffffffffffffffffffffffff1673ffffffffffffffffffffffffffffffffffffffff16815260200190815260200160002060008282546104fd9190610a25565b925050819055503373ffffffffffffffffffffffffffffffffffffffff166108fc829081150290604051600060405180830381858888f1935050505015801561054a573d6000803e3d6000fd5b503373ffffffffffffffffffffffffffffffffffffffff167f7fcf532c15f0a6db0bd6d0e038bea71d30d808c7d98cb3bf7268a95bf5081b65826040516105919190610853565b60405180910390a250565b600260009054906101000a900460ff1681565b60036020528060005260406000206000915090505481565b600180546105d4906109f3565b80601f0160208091040260200160405190810160405280929190818152602001828054610600906109f3565b801561064d5780601f106106225761010080835404028352916020019161064d565b820191906000526020600020905b81548152906001019060200180831161063057829003601f168201915b505050505081565b6004602052816000526040600020602052806000526040600020600091509150505481565b600081519050919050565b600082825260208201905092915050565b60005b838110156106b4578082015181840152602081019050610699565b838111156106c3576000848401525b50505050565b6000601f19601f8301169050919050565b60006106e58261067a565b6106ef8185610685565b93506106ff818560208601610696565b610708816106c9565b840191505092915050565b6000602082019050818103600083015261072d81846106da565b905092915050565b600080fd5b600073ffffffffffffffffffffffffffffffffffffffff82169050919050565b60006107658261073a565b9050919050565b6107758161075a565b811461078057600080fd5b50565b6000813590506107928161076c565b92915050565b6000819050919050565b6107ab81610798565b81146107b657600080fd5b50565b6000813590506107c8816107a2565b92915050565b600080604083850312156107e5576107e4610735565b5b60006107f385828601610783565b9250506020610804858286016107b9565b9150509250929050565b60008115159050919050565b6108238161080e565b82525050565b600060208201905061083e600083018461081a565b92915050565b61084d81610798565b82525050565b60006020820190506108686000830184610844565b92915050565b60006020828403121561088457610883610735565b5b6000610892848285016107b9565b91505092915050565b600060ff82169050919050565b6108b18161089b565b82525050565b60006020820190506108cc60008301846108a8565b92915050565b6000602082840312156108e8576108e7610735565b5b60006108f684828501610783565b91505092915050565b6000806040838503121561091657610915610735565b5b600061092485828601610783565b925050602061093585828601610783565b9150509250929050565b7f4e487b7100000000000000000000000000000000000000000000000000000000600052601160045260246000fd5b600061097982610798565b915061098483610798565b9250827fffffffffffffffffffffffffffffffffffffffffffffffffffffffffffffffff038211156109b9576109b861093f565b5b828201905092915050565b7f4e487b7100000000000000000000000000000000000000000000000000000000600052602260045260246000fd5b60006002820490506001821680610a0b57607f821691505b60208210811415610a1f57610a1e6109c4565b5b50919050565b6000610a3082610798565b9150610a3b83610798565b925082821015610a4e57610a4d61093f565b5b82820390509291505056fea2646970667358221220b69913d3e0e4f8e4a333b7d8ab900297edc98cc0564f05df95b3e316deb67dc764736f6c634300080a0033",
  "linkReferences": {},
  "deployedLinkReferences": {}
}