{
  "_format": "hh-sol-artifact-1",
  "contractName": "Trade",
  "sourceName": "contracts/Trade.sol",
  "abi": [
    {
      "anonymous": false,
      "inputs": [
        {
          "indexed": true,
          "internalType": "address",
          "name": "previousOwner",
          "type": "address"
        },
        {
          "indexed": true,
          "internalType": "address",
          "name": "newOwner",
          "type": "address"
        }
      ],
      "name": "OwnershipTransferred",
      "type": "event"
    },
    {
      "inputs": [
        {
          "internalType": "address[]",
          "name": "_tokens",
          "type": "address[]"
        }
      ],
      "name": "addTokens",
      "outputs": [],
      "stateMutability": "nonpayable",
      "type": "function"
    },
    {
      "inputs": [
        {
          "internalType": "address",
          "name": "router",
          "type": "address"
        },
        {
          "internalType": "address",
          "name": "_tokenIn",
          "type": "address"
        },
        {
          "internalType": "address",
          "name": "_tokenOut",
          "type": "address"
        },
        {
          "internalType": "uint256",
          "name": "_amount",
          "type": "uint256"
        }
      ],
      "name": "getAmountOutMin",
      "outputs": [
        {
          "internalType": "uint256",
          "name": "",
          "type": "uint256"
        }
      ],
      "stateMutability": "view",
      "type": "function"
    },
    {
      "inputs": [
        {
          "internalType": "address",
          "name": "_tokenContractAddress",
          "type": "address"
        }
      ],
      "name": "getBalance",
      "outputs": [
        {
          "internalType": "uint256",
          "name": "",
          "type": "uint256"
        }
      ],
      "stateMutability": "view",
      "type": "function"
    },
    {
      "inputs": [
        {
          "internalType": "address",
          "name": "_router",
          "type": "address"
        },
        {
          "internalType": "address",
          "name": "_baseAsset",
          "type": "address"
        },
        {
          "internalType": "uint256",
          "name": "_amount",
          "type": "uint256"
        }
      ],
      "name": "instaSearch",
      "outputs": [
        {
          "internalType": "uint256",
          "name": "",
          "type": "uint256"
        },
        {
          "internalType": "address",
          "name": "",
          "type": "address"
        },
        {
          "internalType": "address",
          "name": "",
          "type": "address"
        }
      ],
      "stateMutability": "view",
      "type": "function"
    },
    {
      "inputs": [
        {
          "internalType": "address",
          "name": "_router1",
          "type": "address"
        },
        {
          "internalType": "address",
          "name": "_baseAsset",
          "type": "address"
        },
        {
          "internalType": "address",
          "name": "_token1",
          "type": "address"
        },
        {
          "internalType": "address",
          "name": "_token2",
          "type": "address"
        },
        {
          "internalType": "uint256",
          "name": "_amount",
          "type": "uint256"
        }
      ],
      "name": "instaTrade",
      "outputs": [],
      "stateMutability": "payable",
      "type": "function"
    },
    {
      "inputs": [],
      "name": "owner",
      "outputs": [
        {
          "internalType": "address",
          "name": "",
          "type": "address"
        }
      ],
      "stateMutability": "view",
      "type": "function"
    },
    {
      "inputs": [],
      "name": "recoverEth",
      "outputs": [],
      "stateMutability": "nonpayable",
      "type": "function"
    },
    {
      "inputs": [
        {
          "internalType": "address",
          "name": "tokenAddress",
          "type": "address"
        }
      ],
      "name": "recoverTokens",
      "outputs": [],
      "stateMutability": "nonpayable",
      "type": "function"
    },
    {
      "inputs": [],
      "name": "renounceOwnership",
      "outputs": [],
      "stateMutability": "nonpayable",
      "type": "function"
    },
    {
      "inputs": [
        {
          "internalType": "uint256",
          "name": "",
          "type": "uint256"
        }
      ],
      "name": "tokens",
      "outputs": [
        {
          "internalType": "address",
          "name": "",
          "type": "address"
        }
      ],
      "stateMutability": "view",
      "type": "function"
    },
    {
      "inputs": [
        {
          "internalType": "address",
          "name": "newOwner",
          "type": "address"
        }
      ],
      "name": "transferOwnership",
      "outputs": [],
      "stateMutability": "nonpayable",
      "type": "function"
    }
  ],
  "bytecode": "0x608060405234801561001057600080fd5b5061002d61002261003260201b60201c565b61003a60201b60201c565b6100fe565b600033905090565b60008060009054906101000a900473ffffffffffffffffffffffffffffffffffffffff169050816000806101000a81548173ffffffffffffffffffffffffffffffffffffffff021916908373ffffffffffffffffffffffffffffffffffffffff1602179055508173ffffffffffffffffffffffffffffffffffffffff168173ffffffffffffffffffffffffffffffffffffffff167f8be0079c531659141344cd1fd0a4f28419497f9722a3daafe3b4186f6b6457e060405160405180910390a35050565b611b088061010d6000396000f3fe60806040526004361061009c5760003560e01c80638da5cb5b116100645780638da5cb5b14610184578063bcdb446b146101af578063d8747379146101c6578063dece9591146101e2578063f2fde38b14610221578063f8b2cb4f1461024a5761009c565b806316114acd146100a157806343cf6f24146100ca5780634ae05c7d146101075780634f64b2be14610130578063715018a61461016d575b600080fd5b3480156100ad57600080fd5b506100c860048036038101906100c3919061112f565b610287565b005b3480156100d657600080fd5b506100f160048036038101906100ec9190611192565b610390565b6040516100fe9190611208565b60405180910390f35b34801561011357600080fd5b5061012e60048036038101906101299190611288565b61053c565b005b34801561013c57600080fd5b50610157600480360381019061015291906112d5565b6105f4565b6040516101649190611311565b60405180910390f35b34801561017957600080fd5b50610182610633565b005b34801561019057600080fd5b50610199610647565b6040516101a69190611311565b60405180910390f35b3480156101bb57600080fd5b506101c4610670565b005b6101e060048036038101906101db919061132c565b6106c1565b005b3480156101ee57600080fd5b50610209600480360381019061020491906113a7565b610a40565b604051610218939291906113fa565b60405180910390f35b34801561022d57600080fd5b506102486004803603810190610243919061112f565b610c57565b005b34801561025657600080fd5b50610271600480360381019061026c919061112f565b610cdb565b60405161027e9190611208565b60405180910390f35b61028f610d63565b60008190508073ffffffffffffffffffffffffffffffffffffffff1663a9059cbb338373ffffffffffffffffffffffffffffffffffffffff166370a08231306040518263ffffffff1660e01b81526004016102ea9190611311565b602060405180830381865afa158015610307573d6000803e3d6000fd5b505050506040513d601f19601f8201168201806040525081019061032b9190611446565b6040518363ffffffff1660e01b8152600401610348929190611473565b6020604051808303816000875af1158015610367573d6000803e3d6000fd5b505050506040513d601f19601f8201168201806040525081019061038b91906114d4565b505050565b60006060600267ffffffffffffffff8111156103af576103ae611501565b5b6040519080825280602002602001820160405280156103dd5781602001602082028036833780820191505090505b50905084816000815181106103f5576103f4611530565b5b602002602001019073ffffffffffffffffffffffffffffffffffffffff16908173ffffffffffffffffffffffffffffffffffffffff1681525050838160018151811061044457610443611530565b5b602002602001019073ffffffffffffffffffffffffffffffffffffffff16908173ffffffffffffffffffffffffffffffffffffffff168152505060008673ffffffffffffffffffffffffffffffffffffffff1663d06ca61f85846040518363ffffffff1660e01b81526004016104bb92919061161d565b600060405180830381865afa9250505080156104fa57506040513d6000823e3d601f19601f820116820180604052508101906104f7919061176d565b60015b6105035761052f565b806001845161051291906117e5565b8151811061052357610522611530565b5b60200260200101519150505b8092505050949350505050565b610544610d63565b60005b828290508110156105ef57600183838381811061056757610566611530565b5b905060200201602081019061057c919061112f565b9080600181540180825580915050600190039060005260206000200160009091909190916101000a81548173ffffffffffffffffffffffffffffffffffffffff021916908373ffffffffffffffffffffffffffffffffffffffff16021790555080806105e790611819565b915050610547565b505050565b6001818154811061060457600080fd5b906000526020600020016000915054906101000a900473ffffffffffffffffffffffffffffffffffffffff1681565b61063b610d63565b6106456000610de1565b565b60008060009054906101000a900473ffffffffffffffffffffffffffffffffffffffff16905090565b610678610d63565b3373ffffffffffffffffffffffffffffffffffffffff166108fc479081150290604051600060405180830381858888f193505050501580156106be573d6000803e3d6000fd5b50565b6106c9610d63565b60008473ffffffffffffffffffffffffffffffffffffffff166370a08231306040518263ffffffff1660e01b81526004016107049190611311565b602060405180830381865afa158015610721573d6000803e3d6000fd5b505050506040513d601f19601f820116820180604052508101906107459190611446565b905060008473ffffffffffffffffffffffffffffffffffffffff166370a08231306040518263ffffffff1660e01b81526004016107829190611311565b602060405180830381865afa15801561079f573d6000803e3d6000fd5b505050506040513d601f19601f820116820180604052508101906107c39190611446565b905060008473ffffffffffffffffffffffffffffffffffffffff166370a08231306040518263ffffffff1660e01b81526004016108009190611311565b602060405180830381865afa15801561081d573d6000803e3d6000fd5b505050506040513d601f19601f820116820180604052508101906108419190611446565b905061084f88888887610ea5565b6000828773ffffffffffffffffffffffffffffffffffffffff166370a08231306040518263ffffffff1660e01b815260040161088b9190611311565b602060405180830381865afa1580156108a8573d6000803e3d6000fd5b505050506040513d601f19601f820116820180604052508101906108cc9190611446565b6108d691906117e5565b90506108e489888884610ea5565b6000828773ffffffffffffffffffffffffffffffffffffffff166370a08231306040518263ffffffff1660e01b81526004016109209190611311565b602060405180830381865afa15801561093d573d6000803e3d6000fd5b505050506040513d601f19601f820116820180604052508101906109619190611446565b61096b91906117e5565b90506109798a888b84610ea5565b848873ffffffffffffffffffffffffffffffffffffffff166370a08231306040518263ffffffff1660e01b81526004016109b39190611311565b602060405180830381865afa1580156109d0573d6000803e3d6000fd5b505050506040513d601f19601f820116820180604052508101906109f49190611446565b11610a34576040517f08c379a0000000000000000000000000000000000000000000000000000000008152600401610a2b906118bf565b60405180910390fd5b50505050505050505050565b60008060008060008060005b600180549050811015610c415760005b600180549050811015610c2d57610ab38b8b60018581548110610a8257610a81611530565b5b9060005260206000200160009054906101000a900473ffffffffffffffffffffffffffffffffffffffff168c610390565b9450610b3d8b60018481548110610acd57610acc611530565b5b9060005260206000200160009054906101000a900473ffffffffffffffffffffffffffffffffffffffff1660018481548110610b0c57610b0b611530565b5b9060005260206000200160009054906101000a900473ffffffffffffffffffffffffffffffffffffffff1688610390565b9450610b898b60018381548110610b5757610b56611530565b5b9060005260206000200160009054906101000a900473ffffffffffffffffffffffffffffffffffffffff168c88610390565b945088851115610c1a5760018281548110610ba757610ba6611530565b5b9060005260206000200160009054906101000a900473ffffffffffffffffffffffffffffffffffffffff16935060018181548110610be857610be7611530565b5b9060005260206000200160009054906101000a900473ffffffffffffffffffffffffffffffffffffffff169250610c2d565b8080610c2590611819565b915050610a5c565b508080610c3990611819565b915050610a4c565b5082828295509550955050505093509350939050565b610c5f610d63565b600073ffffffffffffffffffffffffffffffffffffffff168173ffffffffffffffffffffffffffffffffffffffff161415610ccf576040517f08c379a0000000000000000000000000000000000000000000000000000000008152600401610cc690611951565b60405180910390fd5b610cd881610de1565b50565b6000808273ffffffffffffffffffffffffffffffffffffffff166370a08231306040518263ffffffff1660e01b8152600401610d179190611311565b602060405180830381865afa158015610d34573d6000803e3d6000fd5b505050506040513d601f19601f82011682018060405250810190610d589190611446565b905080915050919050565b610d6b6110b5565b73ffffffffffffffffffffffffffffffffffffffff16610d89610647565b73ffffffffffffffffffffffffffffffffffffffff1614610ddf576040517f08c379a0000000000000000000000000000000000000000000000000000000008152600401610dd6906119bd565b60405180910390fd5b565b60008060009054906101000a900473ffffffffffffffffffffffffffffffffffffffff169050816000806101000a81548173ffffffffffffffffffffffffffffffffffffffff021916908373ffffffffffffffffffffffffffffffffffffffff1602179055508173ffffffffffffffffffffffffffffffffffffffff168173ffffffffffffffffffffffffffffffffffffffff167f8be0079c531659141344cd1fd0a4f28419497f9722a3daafe3b4186f6b6457e060405160405180910390a35050565b8273ffffffffffffffffffffffffffffffffffffffff1663095ea7b385836040518363ffffffff1660e01b8152600401610ee0929190611473565b6020604051808303816000875af1158015610eff573d6000803e3d6000fd5b505050506040513d601f19601f82011682018060405250810190610f2391906114d4565b506060600267ffffffffffffffff811115610f4157610f40611501565b5b604051908082528060200260200182016040528015610f6f5781602001602082028036833780820191505090505b5090508381600081518110610f8757610f86611530565b5b602002602001019073ffffffffffffffffffffffffffffffffffffffff16908173ffffffffffffffffffffffffffffffffffffffff16815250508281600181518110610fd657610fd5611530565b5b602002602001019073ffffffffffffffffffffffffffffffffffffffff16908173ffffffffffffffffffffffffffffffffffffffff1681525050600061012c4261102091906119dd565b90508573ffffffffffffffffffffffffffffffffffffffff166338ed17398460018530866040518663ffffffff1660e01b8152600401611064959493929190611a78565b6000604051808303816000875af1158015611083573d6000803e3d6000fd5b505050506040513d6000823e3d601f19601f820116820180604052508101906110ac919061176d565b50505050505050565b600033905090565b6000604051905090565b600080fd5b600080fd5b600073ffffffffffffffffffffffffffffffffffffffff82169050919050565b60006110fc826110d1565b9050919050565b61110c816110f1565b811461111757600080fd5b50565b60008135905061112981611103565b92915050565b600060208284031215611145576111446110c7565b5b60006111538482850161111a565b91505092915050565b6000819050919050565b61116f8161115c565b811461117a57600080fd5b50565b60008135905061118c81611166565b92915050565b600080600080608085870312156111ac576111ab6110c7565b5b60006111ba8782880161111a565b94505060206111cb8782880161111a565b93505060406111dc8782880161111a565b92505060606111ed8782880161117d565b91505092959194509250565b6112028161115c565b82525050565b600060208201905061121d60008301846111f9565b92915050565b600080fd5b600080fd5b600080fd5b60008083601f84011261124857611247611223565b5b8235905067ffffffffffffffff81111561126557611264611228565b5b6020830191508360208202830111156112815761128061122d565b5b9250929050565b6000806020838503121561129f5761129e6110c7565b5b600083013567ffffffffffffffff8111156112bd576112bc6110cc565b5b6112c985828601611232565b92509250509250929050565b6000602082840312156112eb576112ea6110c7565b5b60006112f98482850161117d565b91505092915050565b61130b816110f1565b82525050565b60006020820190506113266000830184611302565b92915050565b600080600080600060a08688031215611348576113476110c7565b5b60006113568882890161111a565b95505060206113678882890161111a565b94505060406113788882890161111a565b93505060606113898882890161111a565b925050608061139a8882890161117d565b9150509295509295909350565b6000806000606084860312156113c0576113bf6110c7565b5b60006113ce8682870161111a565b93505060206113df8682870161111a565b92505060406113f08682870161117d565b9150509250925092565b600060608201905061140f60008301866111f9565b61141c6020830185611302565b6114296040830184611302565b949350505050565b60008151905061144081611166565b92915050565b60006020828403121561145c5761145b6110c7565b5b600061146a84828501611431565b91505092915050565b60006040820190506114886000830185611302565b61149560208301846111f9565b9392505050565b60008115159050919050565b6114b18161149c565b81146114bc57600080fd5b50565b6000815190506114ce816114a8565b92915050565b6000602082840312156114ea576114e96110c7565b5b60006114f8848285016114bf565b91505092915050565b7f4e487b7100000000000000000000000000000000000000000000000000000000600052604160045260246000fd5b7f4e487b7100000000000000000000000000000000000000000000000000000000600052603260045260246000fd5b600081519050919050565b600082825260208201905092915050565b6000819050602082019050919050565b611594816110f1565b82525050565b60006115a6838361158b565b60208301905092915050565b6000602082019050919050565b60006115ca8261155f565b6115d4818561156a565b93506115df8361157b565b8060005b838110156116105781516115f7888261159a565b9750611602836115b2565b9250506001810190506115e3565b5085935050505092915050565b600060408201905061163260008301856111f9565b818103602083015261164481846115bf565b90509392505050565b6000601f19601f8301169050919050565b6116678261164d565b810181811067ffffffffffffffff8211171561168657611685611501565b5b80604052505050565b60006116996110bd565b90506116a5828261165e565b919050565b600067ffffffffffffffff8211156116c5576116c4611501565b5b602082029050602081019050919050565b60006116e96116e4846116aa565b61168f565b9050808382526020820190506020840283018581111561170c5761170b61122d565b5b835b8181101561173557806117218882611431565b84526020840193505060208101905061170e565b5050509392505050565b600082601f83011261175457611753611223565b5b81516117648482602086016116d6565b91505092915050565b600060208284031215611783576117826110c7565b5b600082015167ffffffffffffffff8111156117a1576117a06110cc565b5b6117ad8482850161173f565b91505092915050565b7f4e487b7100000000000000000000000000000000000000000000000000000000600052601160045260246000fd5b60006117f08261115c565b91506117fb8361115c565b92508282101561180e5761180d6117b6565b5b828203905092915050565b60006118248261115c565b91507fffffffffffffffffffffffffffffffffffffffffffffffffffffffffffffffff821415611857576118566117b6565b5b600182019050919050565b600082825260208201905092915050565b7f54726164652052657665727465642c204e6f2050726f666974204d6164650000600082015250565b60006118a9601e83611862565b91506118b482611873565b602082019050919050565b600060208201905081810360008301526118d88161189c565b9050919050565b7f4f776e61626c653a206e6577206f776e657220697320746865207a65726f206160008201527f6464726573730000000000000000000000000000000000000000000000000000602082015250565b600061193b602683611862565b9150611946826118df565b604082019050919050565b6000602082019050818103600083015261196a8161192e565b9050919050565b7f4f776e61626c653a2063616c6c6572206973206e6f7420746865206f776e6572600082015250565b60006119a7602083611862565b91506119b282611971565b602082019050919050565b600060208201905081810360008301526119d68161199a565b9050919050565b60006119e88261115c565b91506119f38361115c565b9250827fffffffffffffffffffffffffffffffffffffffffffffffffffffffffffffffff03821115611a2857611a276117b6565b5b828201905092915050565b6000819050919050565b6000819050919050565b6000611a62611a5d611a5884611a33565b611a3d565b61115c565b9050919050565b611a7281611a47565b82525050565b600060a082019050611a8d60008301886111f9565b611a9a6020830187611a69565b8181036040830152611aac81866115bf565b9050611abb6060830185611302565b611ac860808301846111f9565b969550505050505056fea2646970667358221220418c3a2d616c7107b592b748b4f28005baddd002b15b8569b67ccdd3568a88dd64736f6c634300080a0033",
  "linkReferences": {},
  "deployedLinkReferences": {}
}